8=FIX.4.2|9=177|35=8|52=20081120-20:57:52.158|1=Account-A|6=0|11=156001|14=0|17=154010|20=0|21=1|31=0|32=0|38=100|39=A|40=2|44=80|54=1|55=ETC|59=0|60=20081120-20:57:52.158|150=A|151=100|167=CS|10=238|
8=FIX.4.2|9=179|35=8|52=20081120-20:58:01.971|1=Account-B|6=0|11=156003|14=0|17=154011|20=0|21=1|31=0|32=0|38=1000|39=A|40=2|44=75|54=1|55=MKT|59=0|60=20081120-20:58:01.971|150=A|151=1000|167=CS|10=100|
8=FIX.4.2|9=180|35=8|52=20081120-20:58:10.846|1=Account-C|6=0|11=156005|14=0|17=154012|20=0|21=1|31=0|32=0|38=100|39=A|40=2|44=20.32|54=1|55=CUG|59=1|60=20081120-20:58:10.846|150=A|151=100|167=CS|10=127|
8=FIX.4.2|9=180|35=8|52=20081120-20:58:20.736|1=Account-D|6=0|11=156007|14=0|17=154013|20=0|21=1|31=0|32=0|38=150|39=A|40=2|44=55.22|54=1|55=ERA|59=1|60=20081120-20:58:20.736|150=A|151=150|167=CS|10=139|
8=FIX.4.2|9=182|35=8|52=20081120-20:58:41.861|1=Account-E|6=0|11=156009|14=0|17=154014|20=0|21=1|31=0|32=0|38=2000|39=A|40=2|44=70.35|54=2|55=MKT|59=0|60=20081120-20:58:41.861|150=A|151=2000|167=CS|10=002|
8=FIX.4.2|9=177|35=8|52=20081120-20:58:53.127|1=Account-F|6=0|11=156011|14=0|17=154015|20=0|21=1|31=0|32=0|38=200|39=A|40=2|44=90|54=2|55=ETC|59=0|60=20081120-20:58:53.127|150=A|151=200|167=CS|10=249|
8=FIX.4.2|9=180|35=8|52=20081120-21:00:34.127|1=Account-K|6=0|11=156018|14=0|17=154016|20=0|21=1|31=0|32=0|38=100|39=A|40=2|44=55.00|54=2|55=ERA|59=0|60=20081120-21:00:34.127|150=A|151=100|167=CS|10=111|
8=FIX.4.2|9=183|35=8|52=20081120-21:02:41.142|1=Account-P|6=0|11=156024|14=0|17=154017|20=0|21=1|31=0|32=0|38=2000|39=A|40=2|44=82.57|54=5|55=KTCE|59=1|60=20081120-21:02:41.142|150=A|151=2000|167=CS|10=048|
8=FIX.4.2|9=181|35=8|52=20081120-21:04:28.517|1=Account-U|6=0|11=156030|14=0|17=154018|20=0|21=1|31=0|32=0|38=150|39=A|40=2|44=85.00|54=1|55=KTCE|59=0|60=20081120-21:04:28.517|150=A|151=150|167=CS|10=229|
8=FIX.4.2|9=181|35=8|52=20081120-21:07:36.533|1=Account-X|6=0|11=156034|14=0|17=154019|20=0|21=1|31=0|32=0|38=500|39=A|40=2|44=58.20|54=5|55=ETER|59=0|60=20081120-21:07:36.517|150=A|151=500|167=CS|10=252|
8=FIX.4.2|9=179|35=8|52=20081120-21:08:56.158|1=Account-a|6=0|11=156038|14=0|17=154020|20=0|21=1|31=0|32=0|38=50|39=A|40=2|44=60.00|54=1|55=ETER|59=0|60=20081120-21:08:56.158|150=A|151=50|167=CS|10=165|
8=FIX.4.2|9=183|35=8|52=20081120-21:09:04.424|1=Account-b|6=0|11=156040|14=0|17=154021|20=0|21=1|31=0|32=0|38=4000|39=A|40=2|44=50.30|54=1|55=CERA|59=0|60=20081120-21:09:04.424|150=A|151=4000|167=CS|10=050|
8=FIX.4.2|9=183|35=8|52=20081120-21:09:13.549|1=Account-c|6=0|11=156042|14=0|17=154022|20=0|21=1|31=0|32=0|38=5000|39=A|40=2|44=44.23|54=1|55=ARKT|59=1|60=20081120-21:09:13.549|150=A|151=5000|167=CS|10=101|
8=FIX.4.2|9=183|35=8|52=20081120-21:09:22.002|1=Account-d|6=0|11=156044|14=0|17=154023|20=0|21=1|31=0|32=0|38=4000|39=A|40=2|44=90.00|54=2|55=ETER|59=0|60=20081120-21:09:22.002|150=A|151=4000|167=CS|10=065|
8=FIX.4.2|9=182|35=8|52=20081120-21:13:07.002|1=Account-j|6=0|11=156052|14=0|17=154024|20=0|21=1|31=0|32=0|38=2000|39=A|40=2|44=30.20|54=1|55=TER|59=0|60=20081120-21:13:07.002|150=A|151=2000|167=CS|10=244|
8=FIX.4.2|9=183|35=8|52=20081120-21:13:22.877|1=Account-k|6=0|11=156054|14=0|17=154025|20=0|21=1|31=0|32=0|38=1200|39=A|40=2|44=28.03|54=1|55=CETE|59=0|60=20081120-21:13:22.877|150=A|151=1200|167=CS|10=091|
8=FIX.4.2|9=233|35=8|34=80|49=MRKTC-EXCH|52=20081120-20:58:20.743|56=090w-archied-ga-xp01-vm_3@marketceterea.com|1=Account-D|6=0|11=156007|14=0|17=12920|20=0|31=0|32=0|37=12919|38=150|39=0|44=55.22|54=1|55=ERA|60=20081120-20:58:20.743|150=0|151=150|10=072|
8=FIX.4.2|9=237|35=8|34=81|49=MRKTC-EXCH|52=20081120-20:58:41.812|56=090w-archied-ga-xp01-vm_3@marketceterea.com|1=Account-B|6=75|11=156003|14=1000|17=12922|20=0|31=75|32=1000|37=12915|38=1000|39=2|44=75|54=1|55=MKT|60=20081120-20:58:41.812|150=2|151=0|10=044|
8=FIX.4.2|9=243|35=8|34=82|49=MRKTC-EXCH|52=20081120-20:58:41.812|56=090w-archied-ga-xp01-vm_3@marketceterea.com|1=Account-E|6=75|11=156009|14=1000|17=12923|20=0|31=75|32=1000|37=12921|38=2000|39=1|44=70.35|54=2|55=MKT|60=20081120-20:58:41.812|150=1|151=1000|10=083|
8=FIX.4.2|9=230|35=8|34=83|49=MRKTC-EXCH|52=20081120-20:58:53.138|56=090w-archied-ga-xp01-vm_3@marketceterea.com|1=Account-F|6=0|11=156011|14=0|17=12925|20=0|31=0|32=0|37=12924|38=200|39=0|44=90|54=2|55=ETC|60=20081120-20:58:53.138|150=0|151=200|10=184|
8=FIX.4.2|9=238|35=8|34=84|49=MRKTC-EXCH|52=20081120-20:59:14.646|56=090w-archied-ga-xp01-vm_3@marketceterea.com|1=Account-A|6=0|11=156013|14=0|17=12927|20=0|31=0|32=0|37=12926|38=90|39=5|41=156001|44=80|54=1|55=ETC|60=20081120-20:59:14.646|150=5|151=90|10=076|
8=FIX.4.2|9=241|35=8|34=85|49=MRKTC-EXCH|52=20081120-20:59:25.184|56=090w-archied-ga-xp01-vm_3@marketceterea.com|1=Account-A|6=0|11=156014|14=0|17=12929|20=0|31=0|32=0|37=12928|38=90|39=5|41=156013|44=88.89|54=1|55=ETC|60=20081120-20:59:25.183|150=5|151=90|10=243|
8=FIX.4.2|9=253|35=8|34=86|49=MRKTC-EXCH|52=20081120-20:59:45.435|56=090w-archied-ga-xp01-vm_3@marketceterea.com|1=Account-E|6=75|11=156015|14=1000|17=12931|20=0|31=75|32=1000|37=12930|38=2000|39=5|41=156009|44=70.30|54=2|55=MKT|60=20081120-20:59:45.435|150=5|151=1000|10=059|
8=FIX.4.2|9=241|35=8|34=87|49=MRKTC-EXCH|52=20081120-20:59:52.776|56=090w-archied-ga-xp01-vm_3@marketceterea.com|1=Account-C|6=0|11=156016|14=0|17=12932|20=0|31=0|32=0|37=12917|38=100|39=4|41=156005|44=20.32|54=1|55=CUG|60=20081120-20:59:52.776|150=4|151=0|10=215|
8=FIX.4.2|9=250|35=8|34=88|49=MRKTC-EXCH|52=20081120-21:00:01.418|56=090w-archied-ga-xp01-vm_3@marketceterea.com|1=Account-E|6=75|11=156017|14=1000|17=12933|20=0|31=75|32=1000|37=12930|38=2000|39=4|41=156015|44=70.30|54=2|55=MKT|60=20081120-21:00:01.418|150=4|151=0|10=128|
8=FIX.4.2|9=244|35=8|34=90|49=MRKTC-EXCH|52=20081120-21:00:34.115|56=090w-archied-ga-xp01-vm_3@marketceterea.com|1=Account-D|6=55.22|11=156007|14=100|17=12935|20=0|31=55.22|32=100|37=12919|38=150|39=1|44=55.22|54=1|55=ERA|60=20081120-21:00:34.115|150=1|151=50|10=096|
8=FIX.4.2|9=243|35=8|34=91|49=MRKTC-EXCH|52=20081120-21:00:34.116|56=090w-archied-ga-xp01-vm_3@marketceterea.com|1=Account-K|6=55.22|11=156018|14=100|17=12936|20=0|31=55.22|32=100|37=12934|38=100|39=2|44=55.00|54=2|55=ERA|60=20081120-21:00:34.116|150=2|151=0|10=046|
8=FIX.4.2|9=230|35=8|34=77|49=MRKTC-EXCH|52=20081120-20:57:52.128|56=090w-archied-ga-xp01-vm_3@marketceterea.com|1=Account-A|6=0|11=156001|14=0|17=12914|20=0|31=0|32=0|37=12913|38=100|39=0|44=80|54=1|55=ETC|60=20081120-20:57:52.128|150=0|151=100|10=167|
8=FIX.4.2|9=232|35=8|34=78|49=MRKTC-EXCH|52=20081120-20:58:01.985|56=090w-archied-ga-xp01-vm_3@marketceterea.com|1=Account-B|6=0|11=156003|14=0|17=12916|20=0|31=0|32=0|37=12915|38=1000|39=0|44=75|54=1|55=MKT|60=20081120-20:58:01.985|150=0|151=1000|10=049|
8=FIX.4.2|9=233|35=8|34=79|49=MRKTC-EXCH|52=20081120-20:58:10.816|56=090w-archied-ga-xp01-vm_3@marketceterea.com|1=Account-C|6=0|11=156005|14=0|17=12918|20=0|31=0|32=0|37=12917|38=100|39=0|44=20.32|54=1|55=CUG|60=20081120-20:58:10.816|150=0|151=100|10=072|
8=FIX.4.2|9=251|35=8|34=97|49=MRKTC-EXCH|52=20081120-21:01:54.258|56=090w-archied-ga-xp01-vm_3@marketceterea.com|1=Account-D|6=55.22|11=156021|14=100|17=12942|20=0|31=55.22|32=100|37=12941|38=150|39=5|41=156007|44=60|54=1|55=ERA|60=20081120-21:01:54.258|150=5|151=50|10=184|
8=FIX.4.2|9=248|35=8|34=98|49=MRKTC-EXCH|52=20081120-21:02:21.765|56=090w-archied-ga-xp01-vm_3@marketceterea.com|1=Account-F|6=88.89|11=156022|14=90|17=12943|20=0|31=88.89|32=90|37=12937|38=200|39=4|41=156020|44=70|54=2|55=ETC|60=20081120-21:02:21.765|150=4|151=0|10=096|
8=FIX.4.2|9=250|35=8|34=99|49=MRKTC-EXCH|52=20081120-21:02:32.543|56=090w-archied-ga-xp01-vm_3@marketceterea.com|1=Account-D|6=55.22|11=156023|14=100|17=12944|20=0|31=55.22|32=100|37=12941|38=150|39=4|41=156021|44=60|54=1|55=ERA|60=20081120-21:02:32.543|150=4|151=0|10=118|
8=FIX.4.2|9=237|35=8|34=100|49=MRKTC-EXCH|52=20081120-21:02:41.140|56=090w-archied-ga-xp01-vm_3@marketceterea.com|1=Account-P|6=0|11=156024|14=0|17=12946|20=0|31=0|32=0|37=12945|38=2000|39=0|44=82.57|54=5|55=KTCE|60=20081120-21:02:41.140|150=0|151=2000|10=026|
8=FIX.4.2|9=247|35=8|34=101|49=MRKTC-EXCH|52=20081120-21:03:07.515|56=090w-archied-ga-xp01-vm_3@marketceterea.com|1=Account-P|6=0|11=156026|14=0|17=12948|20=0|31=0|32=0|37=12947|38=1500|39=5|41=156024|44=82.57|54=5|55=KTCE|60=20081120-21:03:07.515|150=5|151=1500|10=027|
8=FIX.4.2|9=247|35=8|34=102|49=MRKTC-EXCH|52=20081120-21:03:22.114|56=090w-archied-ga-xp01-vm_3@marketceterea.com|1=Account-P|6=0|11=156027|14=0|17=12950|20=0|31=0|32=0|37=12949|38=1500|39=5|41=156026|44=78.00|54=5|55=KTCE|60=20081120-21:03:22.114|150=5|151=1500|10=003|
8=FIX.4.2|9=247|35=8|34=103|49=MRKTC-EXCH|52=20081120-21:03:43.347|56=090w-archied-ga-xp01-vm_3@marketceterea.com|1=Account-P|6=0|11=156028|14=0|17=12952|20=0|31=0|32=0|37=12951|38=1250|39=5|41=156027|44=78.00|54=5|55=KTCE|60=20081120-21:03:43.347|150=5|151=1250|10=027|
8=FIX.4.2|9=247|35=8|34=104|49=MRKTC-EXCH|52=20081120-21:04:01.055|56=090w-archied-ga-xp01-vm_3@marketceterea.com|1=Account-P|6=0|11=156029|14=0|17=12954|20=0|31=0|32=0|37=12953|38=1500|39=5|41=156028|44=82.57|54=5|55=KTCE|60=20081120-21:04:01.055|150=5|151=1500|10=019|
8=FIX.4.2|9=249|35=8|34=105|49=MRKTC-EXCH|52=20081120-21:04:28.540|56=090w-archied-ga-xp01-vm_3@marketceterea.com|1=Account-P|6=82.57|11=156029|14=150|17=12956|20=0|31=82.57|32=150|37=12953|38=1500|39=1|44=82.57|54=5|55=KTCE|60=20081120-21:04:28.540|150=1|151=1350|10=190|
8=FIX.4.2|9=245|35=8|34=106|49=MRKTC-EXCH|52=20081120-21:04:28.540|56=090w-archied-ga-xp01-vm_3@marketceterea.com|1=Account-U|6=82.57|11=156030|14=150|17=12957|20=0|31=82.57|32=150|37=12955|38=150|39=2|44=85.00|54=1|55=KTCE|60=20081120-21:04:28.540|150=2|151=0|10=231|
8=FIX.4.2|9=240|35=8|34=93|49=MRKTC-EXCH|52=20081120-21:01:12.948|56=090w-archied-ga-xp01-vm_3@marketceterea.com|1=Account-F|6=0|11=156020|14=0|17=12938|20=0|31=0|32=0|37=12937|38=200|39=5|41=156011|44=70|54=2|55=ETC|60=20081120-21:01:12.948|150=5|151=200|10=141|
8=FIX.4.2|9=240|35=8|34=94|49=MRKTC-EXCH|52=20081120-21:01:12.950|56=090w-archied-ga-xp01-vm_3@marketceterea.com|1=Account-A|6=88.89|11=156014|14=90|17=12939|20=0|31=88.89|32=90|37=12928|38=90|39=2|44=88.89|54=1|55=ETC|60=20081120-21:01:12.950|150=2|151=0|10=244|
8=FIX.4.2|9=240|35=8|34=95|49=MRKTC-EXCH|52=20081120-21:01:12.950|56=090w-archied-ga-xp01-vm_3@marketceterea.com|1=Account-F|6=88.89|11=156020|14=90|17=12940|20=0|31=88.89|32=90|37=12937|38=200|39=1|44=70|54=2|55=ETC|60=20081120-21:01:12.950|150=1|151=110|10=209|
8=FIX.4.2|9=259|35=8|34=109|49=MRKTC-EXCH|52=20081120-21:06:02.339|56=090w-archied-ga-xp01-vm_3@marketceterea.com|1=Account-P|6=82.57|11=156032|14=150|17=12959|20=0|31=82.57|32=150|37=12958|38=1250|39=5|41=156029|44=82.57|54=5|55=KTCE|60=20081120-21:06:02.339|150=5|151=1100|10=162|
8=FIX.4.2|9=259|35=8|34=111|49=MRKTC-EXCH|52=20081120-21:06:54.775|56=090w-archied-ga-xp01-vm_3@marketceterea.com|1=Account-P|6=82.57|11=156033|14=150|17=12961|20=0|31=82.57|32=150|37=12960|38=1250|39=5|41=156032|44=78.00|54=5|55=KTCE|60=20081120-21:06:54.775|150=5|151=1100|10=151|
8=FIX.4.2|9=235|35=8|34=113|49=MRKTC-EXCH|52=20081120-21:07:36.569|56=090w-archied-ga-xp01-vm_3@marketceterea.com|1=Account-X|6=0|11=156034|14=0|17=12963|20=0|31=0|32=0|37=12962|38=500|39=0|44=58.20|54=5|55=ETER|60=20081120-21:07:36.569|150=0|151=500|10=251|
8=FIX.4.2|9=242|35=8|34=119|49=MRKTC-EXCH|52=20081120-21:08:56.214|56=090w-archied-ga-xp01-vm_3@marketceterea.com|1=Account-a|6=58.20|11=156038|14=50|17=12970|20=0|31=58.20|32=50|37=12968|38=50|39=2|44=60.00|54=1|55=ETER|60=20081120-21:08:56.214|150=2|151=0|10=098|
8=FIX.4.2|9=237|35=8|34=120|49=MRKTC-EXCH|52=20081120-21:09:04.456|56=090w-archied-ga-xp01-vm_3@marketceterea.com|1=Account-b|6=0|11=156040|14=0|17=12972|20=0|31=0|32=0|37=12971|38=4000|39=0|44=50.30|54=1|55=CERA|60=20081120-21:09:04.456|150=0|151=4000|10=048|
8=FIX.4.2|9=237|35=8|34=121|49=MRKTC-EXCH|52=20081120-21:09:13.621|56=090w-archied-ga-xp01-vm_3@marketceterea.com|1=Account-c|6=0|11=156042|14=0|17=12974|20=0|31=0|32=0|37=12973|38=5000|39=0|44=44.23|54=1|55=ARKT|60=20081120-21:09:13.621|150=0|151=5000|10=074|
8=FIX.4.2|9=237|35=8|34=122|49=MRKTC-EXCH|52=20081120-21:09:22.053|56=090w-archied-ga-xp01-vm_3@marketceterea.com|1=Account-d|6=0|11=156044|14=0|17=12976|20=0|31=0|32=0|37=12975|38=4000|39=0|44=90.00|54=2|55=ETER|60=20081120-21:09:22.053|150=0|151=4000|10=073|
8=FIX.4.2|9=244|35=8|34=123|49=MRKTC-EXCH|52=20081120-21:09:47.567|56=090w-archied-ga-xp01-vm_3@marketceterea.com|1=Account-d|6=0|11=156047|14=0|17=12977|20=0|31=0|32=0|37=12975|38=4000|39=4|41=156044|44=90.00|54=2|55=ETER|60=20081120-21:09:47.567|150=4|151=0|10=185|
8=FIX.4.2|9=245|35=8|34=115|49=MRKTC-EXCH|52=20081120-21:08:11.485|56=090w-archied-ga-xp01-vm_3@marketceterea.com|1=Account-X|6=0|11=156036|14=0|17=12965|20=0|31=0|32=0|37=12964|38=800|39=5|41=156034|44=60.00|54=5|55=ETER|60=20081120-21:08:11.485|150=5|151=800|10=207|
8=FIX.4.2|9=245|35=8|34=117|49=MRKTC-EXCH|52=20081120-21:08:42.788|56=090w-archied-ga-xp01-vm_3@marketceterea.com|1=Account-X|6=0|11=156037|14=0|17=12967|20=0|31=0|32=0|37=12966|38=500|39=5|41=156036|44=58.20|54=5|55=ETER|60=20081120-21:08:42.788|150=5|151=500|10=239|
8=FIX.4.2|9=245|35=8|34=118|49=MRKTC-EXCH|52=20081120-21:08:56.214|56=090w-archied-ga-xp01-vm_3@marketceterea.com|1=Account-X|6=58.20|11=156037|14=50|17=12969|20=0|31=58.20|32=50|37=12966|38=500|39=1|44=58.20|54=5|55=ETER|60=20081120-21:08:56.214|150=1|151=450|10=004|
8=FIX.4.2|9=247|35=8|34=125|49=MRKTC-EXCH|52=20081120-21:10:34.489|56=090w-archied-ga-xp01-vm_3@marketceterea.com|1=Account-b|6=0|11=156048|14=0|17=12979|20=0|31=0|32=0|37=12978|38=4000|39=5|41=156040|44=55.20|54=1|55=CERA|60=20081120-21:10:34.489|150=5|151=4000|10=047|
8=FIX.4.2|9=247|35=8|34=128|49=MRKTC-EXCH|52=20081120-21:12:00.373|56=090w-archied-ga-xp01-vm_3@marketceterea.com|1=Account-c|6=0|11=156049|14=0|17=12981|20=0|31=0|32=0|37=12980|38=1000|39=5|41=156042|44=45.00|54=1|55=ARKT|60=20081120-21:12:00.372|150=5|151=1000|10=027|
8=FIX.4.2|9=255|35=8|34=129|49=MRKTC-EXCH|52=20081120-21:12:20.130|56=090w-archied-ga-xp01-vm_3@marketceterea.com|1=Account-X|6=58.20|11=156050|14=50|17=12983|20=0|31=58.20|32=50|37=12982|38=500|39=5|41=156037|44=58.23|54=5|55=ETER|60=20081120-21:12:20.130|150=5|151=450|10=190|
8=FIX.4.2|9=247|35=8|34=135|49=MRKTC-EXCH|52=20081120-21:14:11.252|56=090w-archied-ga-xp01-vm_3@marketceterea.com|1=Account-k|6=0|11=156057|14=0|17=12993|20=0|31=0|32=0|37=12992|38=1500|39=5|41=156054|44=28.03|54=1|55=CETE|60=20081120-21:14:11.252|150=5|151=1500|10=039|
8=FIX.4.2|9=253|35=8|34=136|49=MRKTC-EXCH|52=20081120-21:14:27.125|56=090w-archied-ga-xp01-vm_3@marketceterea.com|1=Account-X|6=58.20|11=156058|14=50|17=12994|20=0|31=58.20|32=50|37=12982|38=500|39=4|41=156050|44=58.23|54=5|55=ETER|60=20081120-21:14:27.125|150=4|151=0|10=110|
8=FIX.4.2|9=256|35=8|34=137|49=MRKTC-EXCH|52=20081120-21:14:29.878|56=090w-archied-ga-xp01-vm_3@marketceterea.com|1=Account-P|6=82.57|11=156059|14=150|17=12995|20=0|31=82.57|32=150|37=12960|38=1250|39=4|41=156033|44=78.00|54=5|55=KTCE|60=20081120-21:14:29.878|150=4|151=0|10=034|
8=FIX.4.2|9=244|35=8|34=138|49=MRKTC-EXCH|52=20081120-21:14:36.360|56=090w-archied-ga-xp01-vm_3@marketceterea.com|1=Account-b|6=0|11=156060|14=0|17=12996|20=0|31=0|32=0|37=12984|38=1000|39=4|41=156051|44=45.20|54=1|55=CERA|60=20081120-21:14:36.360|150=4|151=0|10=130|
8=FIX.4.2|9=244|35=8|34=139|49=MRKTC-EXCH|52=20081120-21:14:36.451|56=090w-archied-ga-xp01-vm_3@marketceterea.com|1=Account-c|6=0|11=156061|14=0|17=12997|20=0|31=0|32=0|37=12980|38=1000|39=4|41=156049|44=45.00|54=1|55=ARKT|60=20081120-21:14:36.451|150=4|151=0|10=160|
8=FIX.4.2|9=242|35=8|34=140|49=MRKTC-EXCH|52=20081120-21:14:36.454|56=090w-archied-ga-xp01-vm_3@marketceterea.com|1=Account-j|6=0|11=156062|14=0|17=12998|20=0|31=0|32=0|37=12990|38=1000|39=4|41=156056|44=30.0|54=1|55=TER|60=20081120-21:14:36.453|150=4|151=0|10=038|
8=FIX.4.2|9=244|35=8|34=141|49=MRKTC-EXCH|52=20081120-21:14:36.456|56=090w-archied-ga-xp01-vm_3@marketceterea.com|1=Account-k|6=0|11=156063|14=0|17=12999|20=0|31=0|32=0|37=12992|38=1500|39=4|41=156057|44=28.03|54=1|55=CETE|60=20081120-21:14:36.456|150=4|151=0|10=169|
8=FIX.4.2|9=247|35=8|34=131|49=MRKTC-EXCH|52=20081120-21:12:52.890|56=090w-archied-ga-xp01-vm_3@marketceterea.com|1=Account-b|6=0|11=156051|14=0|17=12985|20=0|31=0|32=0|37=12984|38=1000|39=5|41=156048|44=45.20|54=1|55=CERA|60=20081120-21:12:52.890|150=5|151=1000|10=029|
8=FIX.4.2|9=236|35=8|34=132|49=MRKTC-EXCH|52=20081120-21:13:06.888|56=090w-archied-ga-xp01-vm_3@marketceterea.com|1=Account-j|6=0|11=156052|14=0|17=12987|20=0|31=0|32=0|37=12986|38=2000|39=0|44=30.20|54=1|55=TER|60=20081120-21:13:06.888|150=0|151=2000|10=030|
8=FIX.4.2|9=237|35=8|34=133|49=MRKTC-EXCH|52=20081120-21:13:22.749|56=090w-archied-ga-xp01-vm_3@marketceterea.com|1=Account-k|6=0|11=156054|14=0|17=12989|20=0|31=0|32=0|37=12988|38=1200|39=0|44=28.03|54=1|55=CETE|60=20081120-21:13:22.749|150=0|151=1200|10=091|
8=FIX.4.2|9=245|35=8|34=134|49=MRKTC-EXCH|52=20081120-21:13:47.747|56=090w-archied-ga-xp01-vm_3@marketceterea.com|1=Account-j|6=0|11=156056|14=0|17=12991|20=0|31=0|32=0|37=12990|38=1000|39=5|41=156052|44=30.0|54=1|55=TER|60=20081120-21:13:47.747|150=5|151=1000|10=196|

