8=FIX.4.2|9=209|35=8|52=20081120-22:04:16.971|1=Option-A|6=0|11=157001|14=0|17=154032|20=0|21=1|31=0|32=0|38=100|39=A|40=2|44=80|54=1|55=ETC+AA|59=0|60=20081120-22:04:16.971|77=O|150=A|151=100|167=OPT|200=200811|201=1|202=80|10=210|
8=FIX.4.2|9=217|35=8|52=20081120-22:05:17.471|1=Option-B|6=0|11=157002|14=0|17=154033|20=0|21=1|31=0|32=0|38=1000|39=A|40=2|44=75.00|54=1|55=MKT+BB|59=0|60=20081120-22:05:17.471|77=C|150=A|151=1000|167=OPT|200=200812|201=0|202=75.00|10=088|
8=FIX.4.2|9=215|35=8|52=20081120-22:06:44.439|1=Option-C|6=0|11=157003|14=0|17=154034|20=0|21=1|31=0|32=0|38=100|39=A|40=2|44=20.32|54=1|55=CUG+CC|59=1|60=20081120-22:06:44.439|77=O|150=A|151=100|167=OPT|200=200901|201=1|202=20.32|10=251|
8=FIX.4.2|9=215|35=8|52=20081120-22:07:29.752|1=Option-D|6=0|11=157004|14=0|17=154035|20=0|21=1|31=0|32=0|38=150|39=A|40=2|44=55.22|54=1|55=ERA+DD|59=0|60=20081120-22:07:29.752|77=O|150=A|151=150|167=OPT|200=200902|201=1|202=55.22|10=021|
8=FIX.4.2|9=217|35=8|52=20081120-22:09:12.377|1=Option-E|6=0|11=157005|14=0|17=154036|20=0|21=1|31=0|32=0|38=2000|39=A|40=2|44=70.35|54=2|55=MKT+EE|59=0|60=20081120-22:09:12.377|77=O|150=A|151=2000|167=OPT|200=200903|201=0|202=70.35|10=133|
8=FIX.4.2|9=212|35=8|52=20081120-22:10:22.924|1=Option-F|6=0|11=157006|14=0|17=154037|20=0|21=1|31=0|32=0|38=200|39=A|40=2|44=90.00|54=2|55=ETC+FF|59=0|60=20081120-22:10:22.924|77=C|150=A|151=200|167=OPT|200=200904|201=1|202=90|10=095|
8=FIX.4.2|9=215|35=8|52=20081120-22:13:46.236|1=Option-K|6=0|11=157012|14=0|17=154038|20=0|21=1|31=0|32=0|38=100|39=A|40=2|44=55.00|54=2|55=ERA+KK|59=0|60=20081120-22:13:46.236|77=O|150=A|151=100|167=OPT|200=200905|201=1|202=55.00|10=016|
8=FIX.4.2|9=217|35=8|52=20081120-22:17:36.455|1=Option-P|6=0|11=157017|14=0|17=154039|20=0|21=1|31=0|32=0|38=2000|39=A|40=2|44=82.57|54=2|55=KTC+PP|59=1|60=20081120-22:17:36.455|77=O|150=A|151=2000|167=OPT|200=200906|201=1|202=82.57|10=185|
8=FIX.4.2|9=214|35=8|52=20081120-22:20:53.377|1=Option-U|6=0|11=157020|14=0|17=154040|20=0|21=1|31=0|32=0|38=1250|39=A|40=2|44=85|54=1|55=KTC+UU|59=0|60=20081120-22:20:53.377|77=C|150=A|151=1250|167=OPT|200=200907|201=0|202=85.00|10=013|
8=FIX.4.2|9=215|35=8|52=20081120-22:22:32.002|1=Option-X|6=0|11=157022|14=0|17=154041|20=0|21=1|31=0|32=0|38=500|39=A|40=2|44=58.20|54=2|55=ETE+XX|59=0|60=20081120-22:22:32.002|77=C|150=A|151=500|167=OPT|200=200908|201=1|202=58.20|10=037|
8=FIX.4.2|9=210|35=8|52=20081120-22:24:14.471|1=Option-a|6=0|11=157025|14=0|17=154042|20=0|21=1|31=0|32=0|38=50|39=A|40=2|44=60|54=1|55=ETE+aa|59=0|60=20081120-22:24:14.471|77=O|150=A|151=50|167=OPT|200=200909|201=0|202=60.00|10=098|
8=FIX.4.2|9=217|35=8|52=20081120-22:24:58.674|1=Option-b|6=0|11=157026|14=0|17=154043|20=0|21=1|31=0|32=0|38=4000|39=A|40=2|44=50.30|54=1|55=CER+bb|59=0|60=20081120-22:24:58.674|77=O|150=A|151=4000|167=OPT|200=200910|201=1|202=50.30|10=205|
8=FIX.4.2|9=217|35=8|52=20081120-22:26:12.971|1=Option-c|6=0|11=157027|14=0|17=154044|20=0|21=1|31=0|32=0|38=5000|39=A|40=2|44=44.23|54=1|55=ARK+cc|59=1|60=20081120-22:26:12.971|77=O|150=A|151=5000|167=OPT|200=200911|201=1|202=44.23|10=212|
8=FIX.4.2|9=211|35=8|52=20081120-22:27:08.580|1=Option-d|6=0|11=157028|14=0|17=154045|20=0|21=1|31=0|32=0|38=4000|39=A|40=2|44=90|54=2|55=ETE+dd|59=0|60=20081120-22:27:08.580|77=O|150=A|151=4000|167=OPT|200=200912|201=1|202=90|10=178|
8=FIX.4.2|9=217|35=8|52=20081120-22:30:11.096|1=Option-j|6=0|11=157034|14=0|17=154046|20=0|21=1|31=0|32=0|38=2000|39=A|40=2|44=30.20|54=1|55=TER+jj|59=0|60=20081120-22:30:11.096|77=O|150=A|151=2000|167=OPT|200=200801|201=1|202=30.20|10=205|
8=FIX.4.2|9=217|35=8|52=20081120-22:30:45.736|1=Option-k|6=0|11=157035|14=0|17=154047|20=0|21=1|31=0|32=0|38=1200|39=A|40=2|44=28.03|54=1|55=CET+kk|59=0|60=20081120-22:30:45.736|77=O|150=A|151=1200|167=OPT|200=200802|201=1|202=28.03|10=230|
8=FIX.4.2|9=265|35=8|34=236|49=MRKTC-EXCH|52=20081120-22:09:12.338|56=090w-archied-ga-xp01-vm_3@marketceterea.com|1=Option-E|6=0|11=157005|14=0|17=13023|20=0|31=0|32=0|37=13022|38=2000|39=0|44=70.35|54=2|55=MKT+EE|60=20081120-22:09:12.338|150=0|151=2000|200=200903|201=0|202=70.35|10=008|
8=FIX.4.2|9=260|35=8|34=239|49=MRKTC-EXCH|52=20081120-22:10:22.892|56=090w-archied-ga-xp01-vm_3@marketceterea.com|1=Option-F|6=0|11=157006|14=0|17=13025|20=0|31=0|32=0|37=13024|38=200|39=0|44=90.00|54=2|55=ETC+FF|60=20081120-22:10:22.892|150=0|151=200|200=200904|201=1|202=90|10=002|
8=FIX.4.2|9=265|35=8|34=241|49=MRKTC-EXCH|52=20081120-22:11:07.579|56=090w-archied-ga-xp01-vm_3@marketceterea.com|1=Option-A|6=0|11=157007|14=0|17=13027|20=0|31=0|32=0|37=13026|38=90|39=5|41=157001|44=80|54=1|55=ETC+AA|60=20081120-22:11:07.579|150=5|151=90|200=200811|201=1|202=80|10=247|
8=FIX.4.2|9=275|35=8|34=244|49=MRKTC-EXCH|52=20081120-22:12:13.072|56=090w-archied-ga-xp01-vm_3@marketceterea.com|1=Option-E|6=0|11=157009|14=0|17=13029|20=0|31=0|32=0|37=13028|38=2000|39=5|41=157005|44=70.30|54=2|55=MKT+EE|60=20081120-22:12:13.072|150=5|151=2000|200=200903|201=0|202=70.35|10=222|
8=FIX.4.2|9=271|35=8|34=245|49=MRKTC-EXCH|52=20081120-22:12:37.077|56=090w-archied-ga-xp01-vm_3@marketceterea.com|1=Option-C|6=0|11=157010|14=0|17=13030|20=0|31=0|32=0|37=13018|38=100|39=4|41=157003|44=20.32|54=1|55=CUG+CC|60=20081120-22:12:37.077|150=4|151=0|200=200901|201=1|202=20.32|10=249|
8=FIX.4.2|9=272|35=8|34=246|49=MRKTC-EXCH|52=20081120-22:12:45.890|56=090w-archied-ga-xp01-vm_3@marketceterea.com|1=Option-E|6=0|11=157011|14=0|17=13031|20=0|31=0|32=0|37=13028|38=2000|39=4|41=157009|44=70.30|54=2|55=MKT+EE|60=20081120-22:12:45.890|150=4|151=0|200=200903|201=0|202=70.35|10=089|
8=FIX.4.2|9=263|35=8|34=248|49=MRKTC-EXCH|52=20081120-22:13:46.013|56=090w-archied-ga-xp01-vm_3@marketceterea.com|1=Option-K|6=0|11=157012|14=0|17=13033|20=0|31=0|32=0|37=13032|38=100|39=0|44=55.00|54=2|55=ERA+KK|60=20081120-22:13:46.013|150=0|151=100|200=200905|201=1|202=55.00|10=142|
8=FIX.4.2|9=270|35=8|34=250|49=MRKTC-EXCH|52=20081120-22:14:27.730|56=090w-archied-ga-xp01-vm_3@marketceterea.com|1=Option-F|6=0|11=157013|14=0|17=13035|20=0|31=0|32=0|37=13034|38=200|39=5|41=157006|44=70.00|54=2|55=ETC+FF|60=20081120-22:14:27.729|150=5|151=200|200=200904|201=1|202=90|10=226|
8=FIX.4.2|9=291|35=8|34=253|49=MRKTC-EXCH|52=20081120-22:15:29.202|56=090w-archied-ga-xp01-vm_3@marketceterea.com|1=Option-D (non partial update)|6=0|11=157014|14=0|17=13037|20=0|31=0|32=0|37=13036|38=150|39=5|41=157004|44=60|54=1|55=ERA+DD|60=20081120-22:15:29.202|150=5|151=150|200=200902|201=1|202=55.22|10=072|
8=FIX.4.2|9=268|35=8|34=255|49=MRKTC-EXCH|52=20081120-22:16:04.805|56=090w-archied-ga-xp01-vm_3@marketceterea.com|1=Option-F|6=0|11=157015|14=0|17=13038|20=0|31=0|32=0|37=13034|38=200|39=4|41=157013|44=70.00|54=2|55=ETC+FF|60=20081120-22:16:04.805|150=4|151=0|200=200904|201=1|202=90|10=133|
8=FIX.4.2|9=289|35=8|34=256|49=MRKTC-EXCH|52=20081120-22:16:10.948|56=090w-archied-ga-xp01-vm_3@marketceterea.com|1=Option-D (non partial update)|6=0|11=157016|14=0|17=13039|20=0|31=0|32=0|37=13036|38=150|39=4|41=157014|44=60|54=1|55=ERA+DD|60=20081120-22:16:10.948|150=4|151=0|200=200902|201=1|202=55.22|10=255|
8=FIX.4.2|9=265|35=8|34=259|49=MRKTC-EXCH|52=20081120-22:17:36.235|56=090w-archied-ga-xp01-vm_3@marketceterea.com|1=Option-P|6=0|11=157017|14=0|17=13041|20=0|31=0|32=0|37=13040|38=2000|39=0|44=82.57|54=2|55=KTC+PP|60=20081120-22:17:36.235|150=0|151=2000|200=200906|201=1|202=82.57|10=059|
8=FIX.4.2|9=275|35=8|34=260|49=MRKTC-EXCH|52=20081120-22:17:55.466|56=090w-archied-ga-xp01-vm_3@marketceterea.com|1=Option-P|6=0|11=157018|14=0|17=13043|20=0|31=0|32=0|37=13042|38=2000|39=5|41=157017|44=78.00|54=2|55=KTC+PP|60=20081120-22:17:55.466|150=5|151=2000|200=200906|201=1|202=82.57|10=034|
8=FIX.4.2|9=262|35=8|34=265|49=MRKTC-EXCH|52=20081120-22:20:53.170|56=090w-archied-ga-xp01-vm_3@marketceterea.com|1=Option-U|6=0|11=157020|14=0|17=13045|20=0|31=0|32=0|37=13044|38=1250|39=0|44=85|54=1|55=KTC+UU|60=20081120-22:20:53.170|150=0|151=1250|200=200907|201=0|202=85.00|10=159|
8=FIX.4.2|9=263|35=8|34=268|49=MRKTC-EXCH|52=20081120-22:22:31.802|56=090w-archied-ga-xp01-vm_3@marketceterea.com|1=Option-X|6=0|11=157022|14=0|17=13047|20=0|31=0|32=0|37=13046|38=500|39=0|44=58.20|54=2|55=ETE+XX|60=20081120-22:22:31.802|150=0|151=500|200=200908|201=1|202=58.20|10=221|
8=FIX.4.2|9=273|35=8|34=270|49=MRKTC-EXCH|52=20081120-22:23:06.940|56=090w-archied-ga-xp01-vm_3@marketceterea.com|1=Option-X|6=0|11=157023|14=0|17=13049|20=0|31=0|32=0|37=13048|38=800|39=5|41=157022|44=60.00|54=2|55=ETE+XX|60=20081120-22:23:06.940|150=5|151=800|200=200908|201=1|202=58.20|10=195|
8=FIX.4.2|9=258|35=8|34=273|49=MRKTC-EXCH|52=20081120-22:24:14.282|56=090w-archied-ga-xp01-vm_3@marketceterea.com|1=Option-a|6=0|11=157025|14=0|17=13051|20=0|31=0|32=0|37=13050|38=50|39=0|44=60|54=1|55=ETE+aa|60=20081120-22:24:14.282|150=0|151=50|200=200909|201=0|202=60.00|10=250|
8=FIX.4.2|9=265|35=8|34=275|49=MRKTC-EXCH|52=20081120-22:24:58.505|56=090w-archied-ga-xp01-vm_3@marketceterea.com|1=Option-b|6=0|11=157026|14=0|17=13053|20=0|31=0|32=0|37=13052|38=4000|39=0|44=50.30|54=1|55=CER+bb|60=20081120-22:24:58.505|150=0|151=4000|200=200910|201=1|202=50.30|10=083|
8=FIX.4.2|9=265|35=8|34=278|49=MRKTC-EXCH|52=20081120-22:26:12.847|56=090w-archied-ga-xp01-vm_3@marketceterea.com|1=Option-c|6=0|11=157027|14=0|17=13055|20=0|31=0|32=0|37=13054|38=5000|39=0|44=44.23|54=1|55=ARK+cc|60=20081120-22:26:12.847|150=0|151=5000|200=200911|201=1|202=44.23|10=113|
8=FIX.4.2|9=259|35=8|34=280|49=MRKTC-EXCH|52=20081120-22:27:08.414|56=090w-archied-ga-xp01-vm_3@marketceterea.com|1=Option-d|6=0|11=157028|14=0|17=13057|20=0|31=0|32=0|37=13056|38=4000|39=0|44=90|54=2|55=ETE+dd|60=20081120-22:27:08.414|150=0|151=4000|200=200912|201=1|202=90|10=073|
8=FIX.4.2|9=266|35=8|34=282|49=MRKTC-EXCH|52=20081120-22:27:53.269|56=090w-archied-ga-xp01-vm_3@marketceterea.com|1=Option-d|6=0|11=157029|14=0|17=13058|20=0|31=0|32=0|37=13056|38=4000|39=4|41=157028|44=90|54=2|55=ETE+dd|60=20081120-22:27:53.269|150=4|151=0|200=200912|201=1|202=90|10=169|
8=FIX.4.2|9=275|35=8|34=284|49=MRKTC-EXCH|52=20081120-22:28:26.511|56=090w-archied-ga-xp01-vm_3@marketceterea.com|1=Option-b|6=0|11=157030|14=0|17=13060|20=0|31=0|32=0|37=13059|38=4000|39=5|41=157026|44=55.20|54=1|55=CER+bb|60=20081120-22:28:26.511|150=5|151=4000|200=200910|201=1|202=50.30|10=050|
8=FIX.4.2|9=272|35=8|34=286|49=MRKTC-EXCH|52=20081120-22:28:56.578|56=090w-archied-ga-xp01-vm_3@marketceterea.com|1=Option-c|6=0|11=157031|14=0|17=13062|20=0|31=0|32=0|37=13061|38=1000|39=5|41=157027|44=45|54=1|55=ARK+cc|60=20081120-22:28:56.578|150=5|151=1000|200=200911|201=1|202=44.23|10=196|
8=FIX.4.2|9=275|35=8|34=294|49=MRKTC-EXCH|52=20081120-22:31:42.189|56=090w-archied-ga-xp01-vm_3@marketceterea.com|1=Option-k|6=0|11=157037|14=0|17=13070|20=0|31=0|32=0|37=13069|38=1500|39=5|41=157035|44=28.03|54=1|55=CET+kk|60=20081120-22:31:42.189|150=5|151=1500|200=200802|201=1|202=28.03|10=105|
8=FIX.4.2|9=271|35=8|34=295|49=MRKTC-EXCH|52=20081120-22:31:52.752|56=090w-archied-ga-xp01-vm_3@marketceterea.com|1=Option-X|6=0|11=157038|14=0|17=13071|20=0|31=0|32=0|37=13048|38=800|39=4|41=157023|44=60.00|54=2|55=ETE+XX|60=20081120-22:31:52.752|150=4|151=0|200=200908|201=1|202=58.20|10=098|
8=FIX.4.2|9=272|35=8|34=296|49=MRKTC-EXCH|52=20081120-22:31:58.412|56=090w-archied-ga-xp01-vm_3@marketceterea.com|1=Option-P|6=0|11=157039|14=0|17=13072|20=0|31=0|32=0|37=13042|38=2000|39=4|41=157018|44=78.00|54=2|55=KTC+PP|60=20081120-22:31:58.412|150=4|151=0|200=200906|201=1|202=82.57|10=134|
8=FIX.4.2|9=265|35=8|34=289|49=MRKTC-EXCH|52=20081120-22:30:10.837|56=090w-archied-ga-xp01-vm_3@marketceterea.com|1=Option-j|6=0|11=157034|14=0|17=13064|20=0|31=0|32=0|37=13063|38=2000|39=0|44=30.20|54=1|55=TER+jj|60=20081120-22:30:10.837|150=0|151=2000|200=200801|201=1|202=30.20|10=107|
8=FIX.4.2|9=265|35=8|34=291|49=MRKTC-EXCH|52=20081120-22:30:45.485|56=090w-archied-ga-xp01-vm_3@marketceterea.com|1=Option-k|6=0|11=157035|14=0|17=13066|20=0|31=0|32=0|37=13065|38=1200|39=0|44=28.03|54=1|55=CET+kk|60=20081120-22:30:45.485|150=0|151=1200|200=200802|201=1|202=28.03|10=126|
8=FIX.4.2|9=274|35=8|34=293|49=MRKTC-EXCH|52=20081120-22:31:15.840|56=090w-archied-ga-xp01-vm_3@marketceterea.com|1=Option-j|6=0|11=157036|14=0|17=13068|20=0|31=0|32=0|37=13067|38=1000|39=5|41=157034|44=30.0|54=1|55=TER+jj|60=20081120-22:31:15.840|150=5|151=1000|200=200801|201=1|202=30.20|10=029|
8=FIX.4.2|9=257|35=8|34=224|49=MRKTC-EXCH|52=20081120-22:04:16.873|56=090w-archied-ga-xp01-vm_3@marketceterea.com|1=Option-A|6=0|11=157001|14=0|17=13015|20=0|31=0|32=0|37=13014|38=100|39=0|44=80|54=1|55=ETC+AA|60=20081120-22:04:16.871|150=0|151=100|200=200811|201=1|202=80|10=094|
8=FIX.4.2|9=265|35=8|34=227|49=MRKTC-EXCH|52=20081120-22:05:17.417|56=090w-archied-ga-xp01-vm_3@marketceterea.com|1=Option-B|6=0|11=157002|14=0|17=13017|20=0|31=0|32=0|37=13016|38=1000|39=0|44=75.00|54=1|55=MKT+BB|60=20081120-22:05:17.417|150=0|151=1000|200=200812|201=0|202=75.00|10=246|
8=FIX.4.2|9=263|35=8|34=230|49=MRKTC-EXCH|52=20081120-22:06:44.374|56=090w-archied-ga-xp01-vm_3@marketceterea.com|1=Option-C|6=0|11=157003|14=0|17=13019|20=0|31=0|32=0|37=13018|38=100|39=0|44=20.32|54=1|55=CUG+CC|60=20081120-22:06:44.373|150=0|151=100|200=200901|201=1|202=20.32|10=132|
8=FIX.4.2|9=263|35=8|34=232|49=MRKTC-EXCH|52=20081120-22:07:29.679|56=090w-archied-ga-xp01-vm_3@marketceterea.com|1=Option-D|6=0|11=157004|14=0|17=13021|20=0|31=0|32=0|37=13020|38=150|39=0|44=55.22|54=1|55=ERA+DD|60=20081120-22:07:29.679|150=0|151=150|200=200902|201=1|202=55.22|10=167|

